:100000000C942A000C9434000C9434000C943400AA
:100010000C9434000C9434000C9434000C94340090
:100020000C9434000C9434000C9434000C94340080
:100030000C9434000C9434000C9434000C94340070
:100040000C9434000C9434000C9434000C94340060
:100050000C94340011241FBECFE5D4E0DEBFCDBF29
:100060000E9436000C947B020C94000080E090E02B
:100070000E94D4000E944C0280EA90E068E770E0A1
:100080000E941D02F9CF81B18C7F81B988E480B9CB
:10009000089584EA86BF06B607FEFDCF81B190E0E1
:1000A000887F883009F491E0892F089584E986BF1C
:1000B00006B604FCFDCF8CEC9AE00197F1F70895A9
:1000C00083B984E886BF06B607FEFDCF613011F024
:1000D00091E008C081B190E0887F883109F091E01B
:1000E00081E09827892F089583B984E886BF06B6F2
:1000F00007FEFDCF613011F091E008C081B190E0C2
:10010000887F883209F091E081E09827892F08954F
:10011000613011F084E801C084EC86BF06B607FEAA
:10012000FDCF613029F481B1887F883541F404C066
:1001300081B1887F803519F483B181E0089580E032
:100140000895FF920F931F93182F062FF42E0E94ED
:100150004900812F61E00E9460008823B9F0802F60
:1001600061E00E947400882389F08F2D61E00E9475
:100170007400882359F084E986BF06B604FCFDCFDD
:100180008CEC9AE00197F1F781E00AC084E986BF20
:1001900006B604FCFDCF8CEC9AE00197F1F780E005
:1001A0001F910F91FF9008958130910529F00297DA
:1001B00031F410BC8BE005C010BC85E002C010BC5F
:1001C0008FE889B9599886E880BD88E18AB9089591
:1001D0008BB1807808955F9BFECF8CB108955D9BB5
:1001E000FECF8CB90895FC0104C05D9BFECF8CB995
:1001F000319680818823C9F7089582E490E06AE30C
:1002000044E00E94A10082E490E06CE044E00E949F
:10021000A10082E490E060E74AE40E94A10082E449
:1002200090E061E745E30E94A10082E490E06FE482
:1002300040E80E94A10082E490E060E540E80E946E
:10024000A10082E490E061E540E00E94A10082E428
:1002500090E062E542E20E94A10082E490E063E562
:100260004EE50E94A10082E490E064E540E80E942F
:10027000A10082E490E068E54EE90E94A10082E4DA
:1002800090E069E548E80E94A10082E490E06AE518
:1002900048E80E94A10082E490E06BE544E40E94FB
:1002A000A10082E490E06CE547E60E94A10082E4B0
:1002B00090E06DE549E40E94A10082E490E06EE5E3
:1002C0004EE00E94A10082E490E069E640E00E94D6
:1002D000A10082E490E06CE64AE00E94A10082E482
:1002E00090E06DE645E50E94A10082E490E06EE6B4
:1002F00041E10E94A10082E490E06FE64FE90E9494
:10030000A10082E490E063E14FE80E94A10082E452
:1003100090E06AEA44E10E94A10082E490E065E591
:1003200040E00E94A10082E490E066E540E40E9483
:10033000A1000895882361F482E490E062E144E042
:100340000E94A10082E490E060E440ED0E94A100E0
:100350000895882321F0813009F06EC037C082E40F
:1003600090E067E146E10E94A10082E490E068E14C
:1003700044E00E94A10082E490E062E344E20E9433
:10038000A10082E490E069E142E00E94A10082E4E1
:1003900090E06AE14AE70E94A10082E490E063E015
:1003A0004AE00E94A10082E490E06EE34AE10E94EC
:1003B000A10082E490E062E742E20E94A10082E4B0
:1003C00090E063E742EF0E94A100089582E490E08C
:1003D00067E146E10E94A10082E490E068E144E028
:1003E0000E94A10082E490E062E344E20E94A10046
:1003F00082E490E069E142E00E94A10082E490E0A2
:100400006AE14AE70E94A10082E490E063E04AE0EA
:100410000E94A10082E490E06EE349E10E94A10005
:1004200082E490E062E741E10E94A10082E490E072
:1004300063E741EF0E94A10008951F93CF93DF93DC
:10044000EB01829BFECF10E01EC0B79BFECF18C011
:10045000839BFECF99B383B3807F9F70892B0E94CB
:10046000EF008399FECF839BFECF99B383B3807F48
:100470009F70892B0E94EF008399FECF839BFECF54
:10048000B799E6CF1F5F812F90E08C179D07E8F2A8
:10049000DF91CF911F9108958AB3807F8ABB84B387
:1004A0008F7084BB8B988A98BF988F9A14BC81E018
:1004B00083BD89E185BD0E94430082E490E062E152
:1004C00040E80E94A10080ED97E024E131E0F901CD
:1004D0003197F1F70197D9F782E490E061E14FE3BA
:1004E0000E94A1000E94FD0080E00E94A90180E01E
:0A04F0000E949A010895F894FFCFCE
:00000001FF
