:100000000C942A000C9434000C9434000C943400AA
:100010000C9434000C9434000C9434000C94340090
:100020000C9434000C9434000C9434000C94340080
:100030000C9434000C9434000C9434000C94340070
:100040000C9434000C9434000C9434000C94340060
:100050000C94340011241FBECFE5D4E0DEBFCDBF29
:100060000E9436000C947F020C9400001F9380E0E5
:1000700090E00E94D8000E94500217E480EA90E0CD
:1000800068E770E00E9421025D9BFECF1CB95D987D
:10009000F5CF11B88FE280B9089584EA86BF06B61D
:1000A00007FEFDCF81B190E0887F883009F491E0B0
:1000B000892F089584E986BF06B604FCFDCF8CEC39
:1000C0009AE00197F1F7089583B984E886BF06B6F0
:1000D00007FEFDCF613011F091E008C081B190E0E2
:1000E000887F883109F091E081E09827892F089571
:1000F00083B984E886BF06B607FEFDCF613011F0F4
:1001000091E008C081B190E0887F883209F091E0E9
:1001100081E09827892F0895613011F084E801C0AB
:1001200084EC86BF06B607FEFDCF613029F481B1AD
:10013000887F883541F404C081B1887F803519F407
:1001400083B181E0089580E00895FF920F931F939B
:10015000182F062FF42E0E944D00812F61E00E947F
:1001600064008823B9F0802F61E00E947800882322
:1001700089F08F2D61E00E947800882359F084E98E
:1001800086BF06B604FCFDCF8CEC9AE00197F1F730
:1001900081E00AC084E986BF06B604FCFDCF8CEC82
:1001A0009AE00197F1F780E01F910F91FF90089579
:1001B0008130910529F0029731F410BC8BE005C025
:1001C00010BC85E002C010BC87E489B9599886E864
:1001D00080BD88E18AB908958BB1807808955F9BCE
:1001E000FECF8CB108955D9BFECF8CB90895FC01C4
:1001F00004C05D9BFECF8CB9319680818823C9F7FE
:10020000089582E490E06AE344E00E94A50082E45D
:1002100090E06CE044E00E94A50082E490E060E79A
:100220004AE40E94A50082E490E061E745E30E9471
:10023000A50082E490E06FE440E80E94A50082E41B
:1002400090E060E540E80E94A50082E490E061E56E
:1002500040E00E94A50082E490E062E542E20E9454
:10026000A50082E490E063E54EE50E94A50082E4EB
:1002700090E064E540E80E94A50082E490E068E533
:100280004EE90E94A50082E490E069E548E80E94FA
:10029000A50082E490E06AE548E80E94A50082E4B7
:1002A00090E06BE544E40E94A50082E490E06CE5F8
:1002B00047E60E94A50082E490E06DE549E40E94D3
:1002C000A50082E490E06EE54EE00E94A50082E485
:1002D00090E069E640E00E94A50082E490E06CE6D0
:1002E0004AE00E94A50082E490E06DE645E50E94A8
:1002F000A50082E490E06EE641E10E94A50082E460
:1003000090E06FE64FE90E94A50082E490E063E18F
:100310004FE80E94A50082E490E06AEA44E10E946E
:10032000A50082E490E065E540E00E94A50082E43B
:1003300090E066E540E40E94A5000895882361F4FA
:1003400082E490E062E144E00E94A50082E490E053
:1003500060E440ED0E94A5000895882321F08130DB
:1003600009F06EC037C082E490E067E146E10E9488
:10037000A50082E490E068E144E00E94A50082E4E8
:1003800090E062E344E20E94A50082E490E069E12B
:1003900042E00E94A50082E490E06AE14AE70E9400
:1003A000A50082E490E063E04AE00E94A50082E4B8
:1003B00090E06EE34AE10E94A50082E490E062E7EB
:1003C00042E20E94A50082E490E063E742EF0E94CF
:1003D000A500089582E490E067E146E10E94A5004F
:1003E00082E490E068E144E00E94A50082E490E0AD
:1003F00062E344E20E94A50082E490E069E142E009
:100400000E94A50082E490E06AE14AE70E94A5000C
:1004100082E490E063E04AE00E94A50082E490E07C
:100420006EE349E10E94A50082E490E062E741E1C9
:100430000E94A50082E490E063E741EF0E94A500DE
:1004400008951F93CF93DF93EB01829BFECF10E0C3
:100450001EC0B79BFECF18C0839BFECF99B383B35A
:10046000807F9F70892B0E94F3008399FECF839B2E
:10047000FECF99B383B3807F9F70892B0E94F300D6
:100480008399FECF839BFECFB799E6CF1F5F812F65
:1004900090E08C179D07E8F2DF91CF911F910895AE
:1004A0008AB3807F8ABB84B38F7084BB8B988A9811
:1004B000BF988F9A14BC81E083BD89E185BD0E94FD
:1004C000490082E490E062E140E80E94A50080EDEE
:1004D00097E024E131E0F9013197F1F70197D9F77D
:1004E00082E490E061E14FE30E94A5000E940101D7
:1004F00080E00E94AD0180E00E949E010895F89482
:02050000FFCF2B
:00000001FF
